S016000063796265725F73656375726974792E7372656322
S11300000C942A000C9447000C9447000C9447006D
S11300100C9447000C9447000C9447000C94470040
S11300200C9447000C9447000C9447000C94470030
S11300300C9447000C94C9040C9447000C94F204EB
S11300400C9447000C9447000C9447000C94470010
S11300500C94470011241FBECFE5D8E0DEBFCDBF0E
S113006010E0A0E6B0E0EAE1FCE002C005900D92E9
S1130070A43EB107D9F721E0A4EEB0E001C01D927F
S1130080A930B207E1F70E94D7020C940B060C9436
S1130090000080E008950E94F7030E94AC040E94CF
S11300A07C020895EF92FF920F931F93CF937C01EC
S11300B0C0E087010C0F111D0E94C504F801808364
S11300C0803241F08FE19EE40197F1F700C0000017
S11300D0CF5FEFCFF8011082CF911F910F91FF9066
S11300E0EF9008950F931F93CF938C01C0E009C044
S11300F0F801EC0FF11D80818A3029F00E94C104BF
S1130100CF5FCA30A8F3CF911F910F9108950F9339
S11301101F93CF93DF938091E400882321F08130F3
S113012009F4FEC024C10E94D30260E080E00E9472
S1130130C00284E690E00E94A70280E091E00E9461
S113014052006EE670E080E091E00E94E005892BA9
S113015009F0CEC00E94D30261E081E00E94C00297
S113016087E790E00E94A70284E890E00E94720072
S113017080E091E00E9452006EE870E080E091E03F
S11301800E94E005892B09F09BC00E94D30261E024
S113019081E00E94C00283E990E00E94A7028AE9FC
S11301A090E00E947200C0E00EC00C2F10E00E948C
S11301B0D0056AE070E00E941B05F801EE50FF4F85
S11301C0805D8083CF5FC83080F310E00BC0C12F07
S11301D0D0E0CE50DF4F88810E94A40288810E9423
S11301E0C1041F5F183098F300E019C0C02FD0E09D
S11301F0FE01EE50FF4F1081812F0E944900FE0145
S1130200E751FF4F8083103329F4CE50DF4F89E349
S1130210888304C0CE50DF4F115018830F5F08301D
S113022028F31092FA0080E006C0E82FF0E0E050D6
S1130230FF4F10828F5F8830C0F38BEF90E00E94F5
S1130240520080E091E00E94520062EF70E080E092
S113025091E00E94E005892BD9F481E08093E400C9
S11302600E94D30261E081E00E94C00283E990E031
S11302700E94A7028AE990E00E9472002FEF8EE9A3
S113028094E2215080409040E1F700C000006FC02C
S11302900E94D30261E081E00E94C0028FE990E0F5
S11302A00E94A70288EA90E00E9472002FEF8EE974
S11302B094E2215080409040E1F700C0000057C014
S11302C00E94D30261E081E00E94C0028FE990E0C5
S11302D00E94A70288EA90E00E9472002FEF8EE944
S11302E094E2215080409040E1F700C000003FC0FC
S11302F00E94D30261E081E00E94C0028BE790E09B
S11303000E94A70287E890E00E9472002FEF8EE916
S113031094E2215080409040E1F700C0000027C0E3
S113032080E091E00E9452006EE670E080E091E08F
S11303300E94E005892B99F40E94D30261E081E0D8
S11303400E94C0028FEA90E00E94A7028BEB90E02B
S11303500E94520061E085E00E94070408C087E71C
S113036090E00E94A70284E890E00E947200DF916E
S1130370CF911F910F910895CF93C82F60E083E030
S11303800E940704C4FB662760F988E00E94070402
S1130390C5FB662760F989E00E940704C6FB66274F
S11303A060F98AE00E9407046C2F661F6627661FA7
S11303B08CE00E94070461E082E00E9407048FEC55
S11303C097E00197F1F700C0000060E082E00E942E
S11303D007048FEC97E00197F1F700C000006C2F41
S11303E0617088E00E940704C1FB662760F989E018
S11303F00E940704C2FB662760F98AE00E94070492
S1130400C3FB662760F98CE00E94070461E082E088
S11304100E9407048FEC97E00197F1F700C00000F9
S113042060E082E00E9407048FEC97E00197F1F707
S113043000C00000CF910895CF93C82F61E083E0FE
S11304400E940704C4FB662760F988E00E94070441
S1130450C5FB662760F989E00E940704C6FB66278E
S113046060F98AE00E9407046C2F661F6627661FE6
S11304708CE00E94070461E082E00E9407048FEC94
S113048097E00197F1F700C0000060E082E00E946D
S113049007048FEC97E00197F1F700C000006C2F80
S11304A0617088E00E940704C1FB662760F989E057
S11304B00E940704C2FB662760F98AE00E940704D1
S11304C0C3FB662760F98CE00E94070461E082E0C8
S11304D00E9407048FEC97E00197F1F700C0000039
S11304E060E082E00E9407048FEC97E00197F1F747
S11304F000C00000CF9108958FE295E70197F1F7CE
S113050000C0000082E00E94BC018FE99FE00197D7
S1130510F1F700C0000088E20E94BC018FE99FE06F
S11305200197F1F700C000008CE00E94BC0186E056
S11305300E94BC0181E00E94BC018FE99FE0019709
S1130540F1F700C0000008950E941C0208950F9363
S11305501F93CF938C01C0E003C00E941C02CF5FA5
S1130560F801EC0FF11D80818111F7CF8FE19EE43A
S11305700197F1F700C00000CF911F910F910895EA
S1130580813039F058F0823031F0833031F060E05E
S113059005C0605C03C06C5E01C06C5A862F806825
S11305A00E94BC01089581E00E94BC0108950E944C
S11305B04B000E948700FDCF982F969596959695AF
S11305C08770943008F007C1913009F447C038F0BF
S11305D0923009F482C0933009F4BEC0FEC0613089
S11305E0B9F018F0623039F1FAC04AB321E030E0D2
S11305F0B90102C0660F771F8A95E2F7CB01942FE9
S1130600982B9ABB9BB3809589238BBB80E008957C
S11306104AB321E030E0B90102C0660F771F8A9522
S1130620E2F7CB018095942F98239ABB9BB389233F
S11306308BBB80E008954AB321E030E0B90102C0E9
S1130640660F771F8A95E2F7CB01962F9095942336
S11306509ABB9BB3892B8BBB80E008956130B9F0C2
S113066018F0623039F1BDC047B321E030E0B90180
S113067002C0660F771F8A95E2F7CB01942F982B5F
S113068097BB98B38095892388BB80E0089547B3CE
S113069021E030E0B90102C0660F771F8A95E2F7C6
S11306A0CB018095942F982397BB98B3892388BB5B
S11306B080E0089547B321E030E0B90102C0660F3D
S11306C0771F8A95E2F7CB01962F9095942397BBD9
S11306D098B3892B88BB81E008956130B9F018F094
S11306E0623039F180C044B321E030E0B90102C086
S11306F0660F771F8A95E2F7CB01942F982B94BB52
S113070095B38095892385BB80E0089544B321E0A7
S113071030E0B90102C0660F771F8A95E2F7CB017A
S11307208095942F982394BB95B3892385BB80E04F
S1130730089544B321E030E0B90102C0660F771F89
S11307408A95E2F7CB01962F9095942394BB95B3A9
S1130750892B85BB81E008956130B9F018F06230CF
S113076039F143C041B321E030E0B90102C0660F62
S1130770771F8A95E2F7CB01942F982B91BB92B304
S11307808095892382BB80E0089541B321E030E065
S1130790B90102C0660F771F8A95E2F7CB018095F5
S11307A0942F982391BB92B3892382BB80E0089550
S11307B041B321E030E0B90102C0660F771F8A958A
S11307C0E2F7CB01962F9095942391BB92B3892B9A
S11307D082BB81E0089581E0089581E0089581E07D
S11307E0089581E0089581E0089581E00895CF930C
S11307F0C0E009C0EC2FF0E0EC53FF4F60818C2F78
S11308000E94DC02CF5FC032A8F3CF910895982FE5
S11308109695969596958770943008F091C091308E
S113082051F138F0923009F448C0933009F467C0AC
S113083089C0662389F0613009F086C04BB321E09A
S113084030E0B90102C0660F771F8A95E2F7CB0149
S1130850842B8BBB80E008954BB321E030E0B901D9
S113086002C0660F771F8A95E2F7CB018095842337
S11308708BBB80E00895662389F0613009F066C07F
S113088048B321E030E0B90102C0660F771F8A95B2
S1130890E2F7CB01842B88BB80E0089548B321E0C4
S11308A030E0B90102C0660F771F8A95E2F7CB01E9
S11308B08095842388BB80E00895662389F06130A5
S11308C009F046C045B321E030E0B90102C0660F2B
S11308D0771F8A95E2F7CB01842B85BB80E00895CE
S11308E045B321E030E0B90102C0660F771F8A9555
S11308F0E2F7CB018095842385BB80E008956623CD
S113090081F0613039F542B321E030E0B90102C031
S1130910660F771F8A95E2F7CB01842B82BB80E0B8
S1130920089542B321E030E0B90102C0660F771F99
S11309308A95E2F7CB018095842382BB80E00895F9
S113094081E0089581E0089581E0089581E00895AB
S113095081E0089581E0089583E389B98BB18D7FA7
S11309608BB980B58F7E80BD80B58F7D80BD80B50D
S1130970877F80BD8AB180618AB98AB188608AB96B
S113098008955D9BFECF8CB908955F9BFECF8CB11B
S113099008951F920F920FB60F9211242F933F9335
S11309A04F935F936F937F938F939F93AF93BF9373
S11309B0EF93FF93E091E700F091E800309709F09E
S11309C00995FF91EF91BF91AF919F918F917F9185
S11309D06F915F914F913F912F910F900FBE0F90A8
S11309E01F9018951F920F920FB60F9211242F93F8
S11309F03F934F935F936F937F938F939F93AF93A3
S1130A00BF93EF93FF93E091E500F091E6003097F8
S1130A1009F00995FF91EF91BF91AF919F918F914B
S1130A207F916F915F914F913F912F910F900FBEE6
S1130A300F901F90189597FB072E16F4009407D07B
S1130A4077FD09D00E94700507FC05D03EF490950F
S1130A5081959F4F0895709561957F4F0895A1E208
S1130A601A2EAA1BBB1BFD010DC0AA1FBB1FEE1F24
S1130A70FF1FA217B307E407F50720F0A21BB30B6F
S1130A80E40BF50B661F771F881F991F1A9469F7EB
S1130A9060957095809590959B01AC01BD01CF0147
S1130AA00895052E97FB1EF400940E94680557FDD7
S1130AB007D00E942F0507FC03D04EF40C94680560
S1130AC050954095309521953F4F4F4F5F4F089576
S1130AD090958095709561957F4F8F4F9F4F0895A6
S1130AE0AA1BBB1B51E107C0AA1FBB1FA617B70750
S1130AF010F0A61BB70B881F991F5A95A9F780956C
S1130B009095BC01CD0108958F929F92AF92BF92B0
S1130B10CF92DF92EF92FF92CF93DF93EC01688143
S1130B2079818A819B81611571058105910521F483
S1130B3064E279ED8BE597E02DE133EF41E050E09D
S1130B400E94510549015A019B01AC01A7EAB1E495
S1130B500E94E9056B017C01ACEEB4EFA5019401A0
S1130B600E94F705DC01CB018C0D9D1DAE1DBF1D40
S1130B70B7FF03C00197A109B04888839983AA836A
S1130B80BB839F77DF91CF91FF90EF90DF90CF9061
S1130B90BF90AF909F908F9008950E948405089510
S1130BA080E690E00E9484050895A0E0B0E0809380
S1130BB0600090936100A0936200B0936300089575
S1130BC0FB01DC018D91019080190110D9F3990B7F
S1130BD008950E94FC05A59F900DB49F900DA49FBD
S1130BE0800D911D11240895B7FF0C94E9050E940E
S1130BF0E905821B930B0895A29FB001B39FC00126
S1130C00A39F700D811D1124911DB29F700D811D34
S10D0C101124911D0895F894FFCFFC
S1130C1A01000000476574204B65793A200033319E
S1130C2A303141413030004E52432037462033316F
S1130C3A203333004E52433746333133330032378D
S1130C4A3031003637203031200036373031003722
S1130C5A46203237203335003746323733350037AA
S1130C6A3120303120414120303000373130314198
S1130C7A41303000010100000000000000000000C3
S1130C8A000100010000000000000101010001024E
S1070C9A000202024C
S9030000FC
