S016000063796265725F73656375726974792E7372656322
S11300000C942A000C9447000C9447000C9447006D
S11300100C9447000C9447000C9447000C94470040
S11300200C9447000C9447000C9447000C94470030
S11300300C9447000C94CE040C9447000C94F704E1
S11300400C9447000C9447000C9447000C94470010
S11300500C94470011241FBECFE5D8E0DEBFCDBF0E
S113006010E0A0E6B0E0E4E2FCE002C005900D92EE
S1130070A63FB107D9F721E0A6EFB0E001C01D9279
S1130080A631B207E1F70E94DC020C9410060C942E
S1130090000080E008950E94FC030E94B1040E94C5
S11300A081020895EF92FF920F931F93CF937C01E7
S11300B0C0E087010C0F111D0E94CA04F80180835F
S11300C0803241F08FE19EE40197F1F700C0000017
S11300D0CF5FEFCFF8011082CF911F910F91FF9066
S11300E0EF9008950F931F93CF938C01C0E009C044
S11300F0F801EC0FF11D80818A3029F00E94C604BA
S1130100CF5FCA30A8F3CF911F910F9108950F9339
S11301101F93CF93DF938091F600882321F08130E1
S113012009F403C129C10E94D80260E080E00E9462
S1130130C50284E690E00E94AC028DE091E00E944A
S113014052006EE670E08DE091E00E94E505892B97
S113015079F40E94D80261E081E00E94C50287E739
S113016090E00E94AC0284E890E00E94720004C116
S11301706EE870E08DE091E00E94E505892B09F0BE
S1130180BCC00E94D80261E081E00E94C50283E9FC
S113019090E00E94AC028AE990E00E947200C0E004
S11301A00EC00C2F10E00E94D5056AE070E00E949A
S11301B02005F801EC5FFE4F805D8083CF5FC8307F
S11301C080F310E00BC0C12FD0E0CC5FDE4F8881FC
S11301D00E94A90288810E94C6041F5F183098F308
S11301E000E019C0C02FD0E0FE01EC5FFE4F10818B
S11301F0812F0E944900FE01E550FF4F8083103398
S113020029F4CC5FDE4F89E3888304C0CC5FDE4FE2
S1130210115018830F5F083028F310920C0180E00E
S113022006C0E82FF0E0E35FFE4F10828F5F883056
S1130230C0F38DE091E00E9452006FE970E08DE020
S113024091E00E94E505892B09F03FC08DE091E023
S11302500E94520064E071E08DE091E00E94E505A7
S1130260892BD9F481E08093F6000E94D80261E0E2
S113027081E00E94C50284EA90E00E94AC028BEA0D
S113028090E00E9472002FEF8EE994E221508040AA
S11302909040E1F700C000006FC00E94D80261E006
S11302A081E00E94C50280EB90E00E94AC0289EBE1
S11302B090E00E9472002FEF8EE994E2215080407A
S11302C09040E1F700C0000057C00E94D80261E0EE
S11302D081E00E94C50280EB90E00E94AC0289EBB1
S11302E090E00E9472002FEF8EE994E2215080404A
S11302F09040E1F700C000003FC00E94D80261E0D6
S113030081E00E94C50280EB90E00E94AC0289EB80
S113031090E00E9472002FEF8EE994E22150804019
S11303209040E1F700C0000027C08DE091E00E94FA
S113033052006EE670E08DE091E00E94E505892BA5
S113034099F40E94D80261E081E00E94C50280EC29
S113035090E00E94AC028CEC90E00E94720061E09C
S113036085E00E940C0408C087E790E00E94AC027C
S113037084E890E00E947200DF91CF911F910F9169
S11303800895CF93C82F60E083E00E940C04C4FB5F
S1130390662760F988E00E940C04C5FB662760F9B3
S11303A089E00E940C04C6FB662760F98AE00E947B
S11303B00C046C2F661F6627661F8CE00E940C04D9
S11303C061E082E00E940C048FEC97E00197F1F762
S11303D000C0000060E082E00E940C048FEC97E013
S11303E00197F1F700C000006C2F617088E00E9453
S11303F00C04C1FB662760F989E00E940C04C2FB6F
S1130400662760F98AE00E940C04C3FB662760F942
S11304108CE00E940C0461E082E00E940C048FECEA
S113042097E00197F1F700C0000060E082E00E94CD
S11304300C048FEC97E00197F1F700C00000CF9116
S11304400895CF93C82F61E083E00E940C04C4FB9D
S1130450662760F988E00E940C04C5FB662760F9F2
S113046089E00E940C04C6FB662760F98AE00E94BA
S11304700C046C2F661F6627661F8CE00E940C0418
S113048061E082E00E940C048FEC97E00197F1F7A1
S113049000C0000060E082E00E940C048FEC97E052
S11304A00197F1F700C000006C2F617088E00E9492
S11304B00C04C1FB662760F989E00E940C04C2FBAE
S11304C0662760F98AE00E940C04C3FB662760F982
S11304D08CE00E940C0461E082E00E940C048FEC2A
S11304E097E00197F1F700C0000060E082E00E940D
S11304F00C048FEC97E00197F1F700C00000CF9156
S113050008958FE295E70197F1F700C0000082E0BB
S11305100E94C1018FE99FE00197F1F700C000003C
S113052088E20E94C1018FE99FE00197F1F700C0C2
S113053000008CE00E94C10186E00E94C10181E0BC
S11305400E94C1018FE99FE00197F1F700C000000C
S113055008950E94210208950F931F93CF938C0155
S1130560C0E003C00E942102CF5FF801EC0FF11D2F
S113057080818111F7CF8FE19EE40197F1F700C0EC
S11305800000CF911F910F910895813039F058F0F8
S1130590823031F0833031F060E005C0605C03C02C
S11305A06C5E01C06C5A862F80680E94C101089558
S11305B081E00E94C10108950E944B000E948700BF
S11305C0FDCF982F9695969596958770943008F060
S11305D007C1913009F447C038F0923009F482C061
S11305E0933009F4BEC0FEC06130B9F018F0623037
S11305F039F1FAC04AB321E030E0B90102C0660F14
S1130600771F8A95E2F7CB01942F982B9ABB9BB363
S1130610809589238BBB80E008954AB321E030E0C4
S1130620B90102C0660F771F8A95E2F7CB01809566
S1130630942F98239ABB9BB389238BBB80E00895A6
S11306404AB321E030E0B90102C0660F771F8A95F2
S1130650E2F7CB01962F909594239ABB9BB3892BF9
S11306608BBB80E008956130B9F018F0623039F145
S1130670BDC047B321E030E0B90102C0660F771F67
S11306808A95E2F7CB01942F982B97BB98B380956A
S1130690892388BB80E0089547B321E030E0B901A5
S11306A002C0660F771F8A95E2F7CB018095942FDD
S11306B0982397BB98B3892388BB80E0089547B3F8
S11306C021E030E0B90102C0660F771F8A95E2F796
S11306D0CB01962F9095942397BB98B3892B88BB15
S11306E081E008956130B9F018F0623039F180C0CA
S11306F044B321E030E0B90102C0660F771F8A9548
S1130700E2F7CB01942F982B94BB95B38095892362
S113071085BB80E0089544B321E030E0B90102C014
S1130720660F771F8A95E2F7CB018095942F982363
S113073094BB95B3892385BB80E0089544B321E03D
S113074030E0B90102C0660F771F8A95E2F7CB014A
S1130750962F9095942394BB95B3892B85BB81E008
S113076008956130B9F018F0623039F143C041B3F3
S113077021E030E0B90102C0660F771F8A95E2F7E5
S1130780CB01942F982B91BB92B38095892382BB84
S113079080E0089541B321E030E0B90102C0660F62
S11307A0771F8A95E2F7CB018095942F982391BB0C
S11307B092B3892382BB80E0089541B321E030E005
S11307C0B90102C0660F771F8A95E2F7CB01962F15
S11307D09095942391BB92B3892B82BB81E00895B9
S11307E081E0089581E0089581E0089581E008950D
S11307F081E0089581E00895CF93C0E009C0EC2F13
S1130800F0E0EB52FF4F60818C2F0E94E102CF5F3A
S1130810C032A8F3CF910895982F96959695969502
S11308208770943008F091C0913051F138F09230D3
S113083009F448C0933009F467C089C0662389F07D
S1130840613009F086C04BB321E030E0B90102C049
S1130850660F771F8A95E2F7CB01842B8BBB80E070
S113086008954BB321E030E0B90102C0660F771F51
S11308708A95E2F7CB01809584238BBB80E00895B1
S1130880662389F0613009F066C048B321E030E0A6
S1130890B90102C0660F771F8A95E2F7CB01842B5A
S11308A088BB80E0089548B321E030E0B90102C07C
S11308B0660F771F8A95E2F7CB018095842388BB66
S11308C080E00895662389F0613009F046C045B39D
S11308D021E030E0B90102C0660F771F8A95E2F784
S11308E0CB01842B85BB80E0089545B321E030E043
S11308F0B90102C0660F771F8A95E2F7CB01809594
S1130900842385BB80E00895662381F0613039F546
S113091042B321E030E0B90102C0660F771F8A9527
S1130920E2F7CB01842B82BB80E0089542B321E03F
S113093030E0B90102C0660F771F8A95E2F7CB0158
S11309408095842382BB80E0089581E0089581E04E
S1130950089581E0089581E0089581E0089581E09B
S1130960089583E389B98BB18D7F8BB980B58F7E70
S113097080BD80B58F7D80BD80B5877F80BD8AB105
S113098080618AB98AB188608AB908955D9BFECF77
S11309908CB908955F9BFECF8CB108951F920F927E
S11309A00FB60F9211242F933F934F935F936F933E
S11309B07F938F939F93AF93BF93EF93FF93E091B4
S11309C0F900F091FA00309709F00995FF91EF9141
S11309D0BF91AF919F918F917F916F915F914F9153
S11309E03F912F910F900FBE0F901F9018951F925B
S11309F00F920FB60F9211242F933F934F935F934F
S1130A006F937F938F939F93AF93BF93EF93FF93D2
S1130A10E091F700F091F800309709F00995FF9103
S1130A20EF91BF91AF919F918F917F916F915F9162
S1130A304F913F912F910F900FBE0F901F901895DB
S1130A4097FB072E16F4009407D077FD09D00E9477
S1130A50750507FC05D03EF4909581959F4F089548
S1130A60709561957F4F0895A1E21A2EAA1BBB1BB6
S1130A70FD010DC0AA1FBB1FEE1FFF1FA217B30766
S1130A80E407F50720F0A21BB30BE40BF50B661F7C
S1130A90771F881F991F1A9469F760957095809540
S1130AA090959B01AC01BD01CF010895052E97FBE4
S1130AB01EF400940E946D0557FD07D00E94340572
S1130AC007FC03D04EF40C946D0550954095309579
S1130AD021953F4F4F4F5F4F0895909580957095A6
S1130AE061957F4F8F4F9F4F0895AA1BBB1B51E108
S1130AF007C0AA1FBB1FA617B70710F0A61BB70B8A
S1130B00881F991F5A95A9F780959095BC01CD012E
S1130B1008958F929F92AF92BF92CF92DF92EF92FD
S1130B20FF92CF93DF93EC01688179818A819B8165
S1130B30611571058105910521F464E279ED8BE578
S1130B4097E02DE133EF41E050E00E945605490162
S1130B505A019B01AC01A7EAB1E40E94EE056B01C6
S1130B607C01ACEEB4EFA50194010E94FC05DC010C
S1130B70CB018C0D9D1DAE1DBF1DB7FF03C001979A
S1130B80A109B04888839983AA83BB839F77DF91A7
S1130B90CF91FF90EF90DF90CF90BF90AF909F9058
S1130BA08F9008950E948905089580E690E00E9440
S1130BB089050895A0E0B0E08093600090936100FF
S1130BC0A0936200B09363000895FB01DC018D9152
S1130BD0019080190110D9F3990B08950E94010620
S1130BE0A59F900DB49F900DA49F800D911D11247D
S1130BF00895B7FF0C94EE050E94EE05821B930B3B
S1130C000895A29FB001B39FC001A39F700D811DE1
S1130C101124911DB29F700D811D1124911D089501
S1070C20F894FFCF72
S1130C2401000000476574204B65793A2000333194
S1130C34303141413030004E524320374620333165
S1130C44203333004E524337463331333300323783
S1130C54303100363720303120003637303100321D
S1130C643730320036372030322000363730320005
S1130C743746203237203335003746323733350090
S1130C843731203031204141203030003731303188
S1130C944141303000010100000000000000000068
S1130CA40000010001000000000000010101000136
S1090CB40200020202002E
S9030000FC
