S016000063796265725F73656375726974792E7372656322
S11300000C942A000C9447000C9447000C9447006D
S11300100C9447000C9447000C9447000C94470040
S11300200C9447000C9447000C9447000C94470030
S11300300C9447000C94B3050C9447000C94DC0515
S11300400C9447000C9447000C9447000C94470010
S11300500C94470011241FBECFE5D8E0DEBFCDBF0E
S113006011E0A0E6B0E0E2EDF0E102C005900D92EF
S1130070A234B107D9F721E0A2E4B1E001C01D9296
S1130080AF34B207E1F70E9423040C9467080C9480
S113009000000E94D4066FEF70E00E9405060895E8
S11300A040E050E0FC012191CF01222359F130EDD1
S11300B0320F3A3020F430E0205331091BC03FEBBB
S11300C0320F363020F430E02753310913C03FE9B2
S11300D0320F363020F430E0275531090BC06091DF
S11300E04B0170914C0184E690E00E94EB0780E0A4
S11300F090E0089564E0440F551F6A95E1F7422BA0
S1130100532BD0CFCA01089540E150E060E070E085
S11301100C94E40690ED980F9A3070F1282F2F7DFF
S11301202154263048F5863431F168F48334E9F0FB
S113013028F48134B1F08234B1F01EC08434B9F0B3
S11301408534B9F019C0833681F028F4813649F03A
S1130150823649F011C0853661F048F0863659F090
S11301600BC09AE009C09BE007C09CE005C09DE07D
S113017003C09EE001C09FE0892F0895BF92CF92F3
S1130180DF92EF92FF920F931F93CF93DF93CDB73C
S1130190DEB761970FB6F894DEBF0FBECDBF6B011B
S11301A07C01B42E81E1E5E9F0E0DE0111960190D5
S11301B00D928A95E1F71CE100E00F5FD701C601BB
S11301C0012E04C0B695A795979587950A94D2F702
S11301D08F70E1E0F0E0EC0FFD1FE80FF11D80816E
S11301E00E94AB050B1511F01450E7CF61960FB6C2
S11301F0F894DEBF0FBECDBFDF91CF911F910F9159
S1130200FF90EF90DF90CF90BF9008950C949C05E1
S1130210EF92FF920F931F93CF938C010E94AF052F
S1130220F8018083C0E0F801EC0FF11D80818A3071
S113023049F0CF5F7801EC0EF11C0E94AF05F70185
S11302408083F1CF1082CF911F910F91FF90EF9097
S113025008954F925F926F927F928F929F92BF9276
S1130260CF92DF92EF92FF920F931F93CF93DF937E
S1130270CDB7DEB728970FB6F894DEBF0FBECDBF5B
S1130280782E60E081E00E9461038E010F5F1F4FB2
S1130290C12CD12C7601B12C4801B71459F10E941C
S11302A0AF0590ED980F9A3028F0982F9F7D9154C8
S11302B09630C8F40E948A00F80180836B2D82E096
S11302C00E946103F80180810E94430384E0CC0C06
S11302D0DD1CEE1CFF1C8A95D1F7F8018081C80E45
S11302E0D11CE11CF11CF80181918F018A3011F0BD
S11302F0B394D3CFF401EB0DF11D1082C4010E941D
S113030084002B013C010E94730360E083E00E949F
S11303106103C301B2010E947603FFEF24E38CE082
S1130320F15020408040E1F700C000000E947303B8
S1130330C701B6010E9476039FEFE4E3FCE091500D
S1130340E040F040E1F700C00000C4010E9450000A
S11303508C010E947303B80180E090E00E94760350
S11303602FEF84E39CE0215080409040E1F700C0EF
S11303700000C301B20128960FB6F894DEBF0FBE89
S1130380CDBFDF91CF911F910F91FF90EF90DF9040
S1130390CF90BF909F908F907F906F905F904F9081
S11303A00895CF93DF93CDB7DEB728970FB6F894AF
S11303B0DEBF0FBECDBF0E9449002FEF84E39CE057
S11303C0215080409040E1F700C00000809142013C
S11303D0882319F0813039F165C00E94730360E00D
S11303E080E00E94610386EA90E00E9445038981CF
S11303F090E00E94080160EB70E0CE0101960E943B
S1130400E207892B09F04EC048E063E371E38FE70C
S113041090E028960FB6F894DEBF0FBECDBFDF91F3
S1130420CF910C94BE000E94730360E080E00E94B0
S1130430610385EF90E00E94450360E081E00E9443
S1130440610385E091E00E94450388E00E94290150
S113045048E061157A4A8140914391F460E07AEA78
S113046081E091E70E94BE0061E085E028960FB626
S1130470F894DEBF0FBECDBFDF91CF910C940F0572
S113048063E371E38FE790E00E94BE0089E191E0AD
S113049028960FB6F894DEBF0FBECDBFDF91CF9183
S11304A00C94450328960FB6F894DEBF0FBECDBF5B
S11304B0DF91CF910895CF93C82F60E083E00E942D
S11304C00F05C4FB662760F988E00E940F05C5FB91
S11304D0662760F989E00E940F05C6FB662760F96C
S11304E08AE00E940F056C2F661F6627661F8CE04A
S11304F00E940F0561E082E00E940F058FEC97E0F7
S11305000197F1F700C0000060E082E00E940F054F
S11305108FEC97E00197F1F700C000006C2F617039
S113052088E00E940F05C1FB662760F989E00E94FC
S11305300F05C2FB662760F98AE00E940F05C3FB22
S1130540662760F98CE00E940F0561E082E00E945A
S11305500F058FEC97E00197F1F700C0000060E011
S113056082E00E940F058FEC97E00197F1F700C03D
S11305700000CF910895CF93C82F61E083E00E94DB
S11305800F05C4FB662760F988E00E940F05C5FBD0
S1130590662760F989E00E940F05C6FB662760F9AB
S11305A08AE00E940F056C2F661F6627661F8CE089
S11305B00E940F0561E082E00E940F058FEC97E036
S11305C00197F1F700C0000060E082E00E940F058F
S11305D08FEC97E00197F1F700C000006C2F617079
S11305E088E00E940F05C1FB662760F989E00E943C
S11305F00F05C2FB662760F98AE00E940F05C3FB62
S1130600662760F98CE00E940F0561E082E00E9499
S11306100F058FEC97E00197F1F700C0000060E050
S113062082E00E940F058FEC97E00197F1F700C07C
S11306300000CF9108958FE295E70197F1F700C08C
S1130640000082E00E945B028FE99FE00197F1F7CE
S113065000C0000088E20E945B028FE99FE00197DE
S1130660F1F700C000008CE00E945B0286E00E946B
S11306705B0281E00E945B028FE99FE00197F1F742
S113068000C0000008950C94BB020F931F93CF93F6
S11306908C01C0E0F801EC0FF11D8081882321F06A
S11306A00E94BB02CF5FF6CF2FEF89E698E121507D
S11306B080409040E1F700C00000CF911F910F915E
S11306C00895813039F058F0823031F0833031F4BC
S11306D06C5A05C0605C03C06C5E01C060E0862F8C
S11306E080680C945B0281E00C945B024F925F92F1
S11306F06F927F928F929F92AF92BF92CF92DF922E
S1130700EF92FF92CF93DF9300D000D01F92CDB72A
S1130710DEB74B015C0197FF0CC08DE20E94BB0267
S1130720B094A09490948094811C911CA11CB11C41
S113073004C0672B682B692B51F01D82C12CD12C6E
S113074076019AE0492E512C612C712C16C080E35D
S11307500F900F900F900F900F90DF91CF91FF901B
S1130760EF90DF90CF90BF90AF909F908F907F904D
S11307706F905F904F900C94BB02C501B401A3012C
S113078092010E943B0669837A838B839C83C11404
S1130790D104E104F10431F48981811103C08D8114
S11307A08F5F8D83AAE0B0E0A70196010E945A06EC
S11307B0C980DA80EB80FC80C60ED71EE81EF91EC5
S11307C0C501B401A30192010E943B0649015A01EB
S11307D0232B242B252B89F68AE0882E912CA12CFF
S11307E0B12CC114D104E104F10479F0C701B601BC
S11307F0A50194010E94190629013A0180E3860F9C
S11308000E94BB0262017301ECCF8D81882339F011
S113081080E30E94BB028D8181508D83F6CF0F90BF
S11308200F900F900F900F90DF91CF91FF90EF906A
S1130830DF90CF90BF90AF909F908F907F906F90FC
S11308405F904F9008950E942C040E9406010E941C
S11308501B030E94D101FDCFE2E2F1E040E081E020
S113086090E03191242F2770542F56955695569524
S1130870523009F46BC0533009F49BC0513099F1E4
S1130880313009F190F0323009F0C4C05AB3BC01E0
S113089002C0660F771F2A95E2F79B01362F309529
S11308A035233ABB3BB3232B1CC05AB3BC0102C053
S11308B0660F771F2A95E2F79B01352F322B3ABB3F
S11308C03BB320950DC05AB3BC0102C0660F771F1D
S11308D02A95E2F79B012095352F32233ABB3BB38F
S11308E023232BBB97C0313009F190F0323009F04B
S11308F091C057B3BC0102C0660F771F2A95E2F777
S11309009B01362F3095352337BB38B3232B1CC0BE
S113091057B3BC0102C0660F771F2A95E2F79B010B
S1130920352F322B37BB38B320950DC057B3BC01DC
S113093002C0660F771F2A95E2F79B012095352F99
S1130940322337BB38B3232328BB64C0313009F1C9
S113095090F0323009F05EC054B3BC0102C0660F9F
S1130960771F2A95E2F79B01362F3095352334BB48
S113097035B3232B1CC054B3BC0102C0660F771FD0
S11309802A95E2F79B01352F322B34BB35B32095E2
S11309900DC054B3BC0102C0660F771F2A95E2F75D
S11309A09B012095352F322334BB35B3232325BB3C
S11309B031C0313001F188F0323061F551B3BC01FE
S11309C002C0660F771F2A95E2F79B01362F3095F8
S11309D0352331BB32B3232B1CC051B3BC0102C03D
S11309E0660F771F2A95E2F79B01352F322B31BB17
S11309F032B320950DC051B3BC0102C0660F771FFE
S1130A002A95E2F79B012095352F322331BB32B36F
S1130A10232322BB4F5F403209F023CF0895982F40
S1130A20969596959695943008F084C08770923088
S1130A3009F443C0933009F45EC09130F9F06623A1
S1130A4079F0613009F076C04BB321E030E0B901B0
S1130A5002C0660F771F8A95E2F7CB01842B0CC086
S1130A604BB321E030E0B90102C0660F771F8A95CD
S1130A70E2F7CB01809584238BBB4DC0662379F0CC
S1130A80613009F057C048B321E030E0B90102C039
S1130A90660F771F8A95E2F7CB01842B0CC048B30D
S1130AA021E030E0B90102C0660F771F8A95E2F7B2
S1130AB0CB018095842388BB2EC0662371F06130FE
S1130AC0C9F545B321E030E0B90102C0660F771FD4
S1130AD08A95E2F7CB01842B0CC045B321E030E0CA
S1130AE0B90102C0660F771F8A95E2F7CB018095A2
S1130AF0842385BB10C0662381F06130D9F442B3EE
S1130B0021E030E0B90102C0660F771F8A95E2F751
S1130B10CB01842B82BB80E0089542B321E030E016
S1130B20B90102C0660F771F8A95E2F7CB01809561
S1130B308423F0CF81E0089583E389B9599880B57F
S1130B408F7E80BD80B58F7D80BD80B5877F80BD61
S1130B50549A539A08955D9BFECF8CB908955F9B78
S1130B60FECF8CB108951F920F920FB60F921124ED
S1130B702F933F934F935F936F937F938F939F93A1
S1130B80AF93BF93EF93FF93E0914501F09146013A
S1130B90309709F00995FF91EF91BF91AF919F9123
S1130BA08F917F916F915F914F913F912F910F9012
S1130BB00FBE0F901F9018951F920F920FB60F92B1
S1130BC011242F933F934F935F936F937F938F934E
S1130BD09F93AF93BF93EF93FF93E0914301F09101
S1130BE04401309709F00995FF91EF91BF91AF91BE
S1130BF09F918F917F916F915F914F913F912F9131
S1130C000F900FBE0F901F90189597FB072E16F4A8
S1130C10009407D077FD09D00E94650607FC05D033
S1130C203EF4909581959F4F0895709561957F4FFF
S1130C300895A1E21A2EAA1BBB1BFD010DC0AA1F19
S1130C40BB1FEE1FFF1FA217B307E407F50720F031
S1130C50A21BB30BE40BF50B661F771F881F991FAC
S1130C601A9469F760957095809590959B01AC01F5
S1130C70BD01CF010895052E97FB1EF400940E9438
S1130C80520657FD07D00E94190607FC03D04EF404
S1130C900C94520650954095309521953F4F4F4FF7
S1130CA05F4F089590958095709561957F4F8F4F14
S1130CB09F4F08950E947906A59F900DB49F900DB3
S1130CC0A49F800D911D11240895AA1BBB1B51E103
S1130CD007C0AA1FBB1FA617B70710F0A61BB70BA8
S1130CE0881F991F5A95A9F780959095BC01CD014D
S1130CF00895A29FB001B39FC001A39F700D811DF1
S1130D001124911DB29F700D811D1124911D089510
S1130D108F929F92AF92BF92CF92DF92EF92FF9207
S1130D20CF93DF93EC01688179818A819B8161157E
S1130D3071058105910521F464E279ED8BE597E075
S1130D402DE133EF41E050E00E943B0649015A0196
S1130D509B01AC01A7EAB1E40E945A066B017C0135
S1130D60ACEEB4EFA50194010E942B08DC01CB0189
S1130D708C0D9D1DAE1DBF1DB7FF03C00197A109BA
S1130D80B04888839983AA83BB839F77DF91CF91EF
S1130D90FF90EF90DF90CF90BF90AF909F908F9097
S1130DA008950E948806089580E690E00E948806CF
S1130DB00895A0E0B0E08093600090936100A09358
S1130DC06200B09363000895A0E0B0E0EAEEF6E0BC
S1130DD00C9431085C016B017A016115710519F0FD
S1130DE0FB0191838083E114F10429F0C701029788
S1130DF0839708F0C9C0E5012196F5011081812F80
S1130E0090E00E94D907892B11F05E01F4CF1D32C6
S1130E1029F42196F501118101E007C01B3221F468
S1130E20E5012296F501118100E0E114F104B1F02D
S1130E30F0E1EF16F10429F4B0C010E3E114F10479
S1130E4001F12AE0E216F104B1F180E1E816F104BF
S1130E5071F0E8E0EE16F104F1F413C0103341F53B
S1130E6088818F7D883549F7198122960260F0E1E7
S1130E70EF2EF12C88248A94982CA82CAFE0BA2E5B
S1130E8020C078E0E72EF12C88248A94982CA82C92
S1130E90EFE1BE2E16C06FEF7FEFCB0197010F2C51
S1130EA0000C440B550B0E94190649015A0109C054
S1130EB08AE0E82EF12C69E9862E982CA82C69E1A9
S1130EC0B62E40E060E070E0CB0127010F2C000C4F
S1130ED066087708FE0150ED352E310E29E0231502
S1130EE070F42FEB210F2A3118F439EC332E06C09D
S1130EF02FE9210F2A3130F529EA322E310E232D24
S1130F0030E02E153F05F4F44F3FC9F086169706DE
S1130F10A806B90688F0A30192010E941808232D9F
S1130F2030E040E050E0620F731F841F951F62178A
S1130F3073078407950710F44FEF01C041E0219631
S1130F401081C8CFC114D10451F0442311F021976A
S1130F5003C001FF04C02297F601D183C08300FFC0
S1130F6007C090958095709561957F4F8F4F9F4FE7
S1130F704F3F79F482E290E090934E0180934D01CB
S1130F803FEF2FEF9FEF0DC040E030E020E090E016
S1130F9008C0462F372F282F04C0103309F067CF1D
S1130FA05FCF642F732F822FCDB7DEB7E1E10C94AE
S1130FB04D0891110C941508803219F08950855010
S1130FC0C8F70895FB01DC018D910190801901108F
S1130FD0D9F3990B0895EF92FF920F931F93CF9338
S1130FE0DF93DB0113962C9121FF18C08B017C0148
S1130FF0D0E0C0E0F70181917F01882361F0D8013E
S11310001896ED91FC911997B8010995892B91F3E4
S1131010DFEFCFEFEFCF8D2F9C2F02C08FEF9FEF2D
S1131020CDB7DEB7E6E00C945808992788270895D1
S1131030DB018F939F930E945A06BF91AF91A29FA9
S1131040800D911DA39F900DB29F900D11240895C2
S1131050B7FF0C945A060E945A06821B930B0895FC
S11310602F923F924F925F926F927F928F929F92B4
S1131070AF92BF92CF92DF92EF92FF920F931F93A2
S1131080CF93DF93CDB7DEB7CA1BDB0B0FB6F89453
S1131090DEBF0FBECDBF09942A88398848885F8493
S11310A06E847D848C849B84AA84B984C884DF8004
S11310B0EE80FD800C811B81AA81B981CE0FD11DE8
S11310C00FB6F894DEBF0FBECDBFED010895F894BE
S10510D0FFCF4C
S11310D2010000004572726F723A20496E76616CAB
S11310E269642063686172616374657220696E2049
S11310F268657861646563696D616C207374726993
S11311026E672E0A0030313233343536373839417E
S1131112424344454600476574204B65793A2000B2
S113112232373031003637203031002052616E645C
S11311323A00456E746572204D53473A2000456E5D
S113114263727970746564204B45593A00203637CE
S1131152203032002024202057726F6E67204B65A6
S1131162792020240075722061726520736563758D
S113117272653A2000656E74657220746865205346
S11311826572766963653A2000374620333120332D
S11311923300010100000000000000000000000113
S11311A20001000000000000010101000102000230
S10511B2020233
S9030000FC
