S016000063796265725F73656375726974792E7372656322
S11300000C942A000C9447000C9447000C9447006D
S11300100C9447000C9447000C9447000C94470040
S11300200C9447000C9447000C9447000C94470030
S11300300C9447000C9432040C9447000C945B0419
S11300400C9447000C9447000C9447000C94470010
S11300500C94470011241FBECFE5D8E0DEBFCDBF0E
S113006010E0A0E6B0E0ECEEFAE002C005900D92DC
S1130070A63FB107D9F721E0A6EFB0E001C01D9279
S1130080A631B207E1F70E94A6020C9474050C9401
S113009000000E94AB020E941B040C944E02EF92DB
S11300A0FF920F931F93CF937C01C0E087010C0F45
S11300B0111D0E942E04F8018083803241F08FE1EB
S11300C09EE40197F1F700C00000CF5FEFCFF80185
S11300D01082CF911F910F91FF90EF9008950F938D
S11300E01F93CF93DF93EC018C01065F1F4F89911F
S11300F08A3029F00E942A04C017D107C1F7DF9182
S1130100CF911F910F910895CF92DF92EF92FF92BA
S11301100F931F93CF93DF938091F600882321F0F0
S1130120813009F4BCC0F1C00E94A30260E080E009
S11301300E94910284E690E00E9478028DE091E0B2
S11301400E944F006EE670E08DE091E00E9463052E
S1130150892B39F40E94A30261E081E00E9491029C
S1130160C4C06EE870E08DE091E00E946305892BC5
S113017009F07DC00E94A30261E081E00E94910227
S113018083E990E00E9478028AE990E00E946F007F
S1130190C4E0D1E08CE0E82E81E0F82E8E019AE0F4
S11301A0C92ED12C0E945305B6010E948404805D9F
S11301B0F80181938F01EE16FF06A1F704E011E028
S11301C06801F80181918F010E947602F601808115
S11301D00E942A04E016F10699F7EBEFF0E099E3A8
S11301E011928881803311F4988302C081508883EE
S11301F02196EC16FD06A1F710920C01EDE0F1E05A
S113020085E191E011928E179F07E1F78DE091E06F
S11302100E944F006FE970E08DE091E00E94630559
S1130220892B29F58DE091E00E944F0064E071E094
S11302308DE091E00E946305892BC9F481E08093ED
S1130240F6000E94A30261E081E00E94910284EA28
S113025090E00E9478028BEA90E00E946F00FFEF2A
S11302602EE984E2F15020408040E1F715C00E945D
S1130270A30261E081E00E94910280EB90E00E9481
S1130280780289EB90E00E946F009FEFEEE9F4E2C0
S11302909150E040F040E1F700C0000036C08DE02E
S11302A091E00E944F006EE670E08DE091E00E94C4
S11302B06305892BD1F40E94A30261E081E00E94CE
S11302C0910280EC90E00E9478028CEC90E00E9415
S11302D06F0061E085E0DF91CF911F910F91FF9056
S11302E0EF90DF90CF900C948E0387E790E00E940C
S11302F0780284E890E0DF91CF911F910F91FF90F5
S1130300EF90DF90CF900C946F00DF91CF911F910D
S11303100F91FF90EF90DF90CF900895CF93C82F67
S113032060E083E00E948E03C4FB662760F988E0E6
S11303300E948E03C5FB662760F989E00E948E0344
S1130340C6FB662760F98AE00E948E036C2F661F45
S11303506627661F8CE00E948E0361E082E00E94A3
S11303608E038FEC97E00197F1F700C0000060E086
S113037082E00E948E038FEC97E00197F1F700C0B2
S113038000006C2F617088E00E948E03C1FB662719
S113039060F989E00E948E03C2FB662760F98AE057
S11303A00E948E03C3FB662760F98CE00E948E03D3
S11303B061E082E00E948E038FEC97E00197F1F7F1
S11303C000C0000060E082E00E948E038FEC97E0A2
S11303D00197F1F700C00000CF910895CF93C82F83
S11303E061E083E00E948E03C4FB662760F988E025
S11303F00E948E03C5FB662760F989E00E948E0384
S1130400C6FB662760F98AE00E948E036C2F661F84
S11304106627661F8CE00E948E0361E082E00E94E2
S11304208E038FEC97E00197F1F700C0000060E0C5
S113043082E00E948E038FEC97E00197F1F700C0F1
S113044000006C2F617088E00E948E03C1FB662758
S113045060F989E00E948E03C2FB662760F98AE096
S11304600E948E03C3FB662760F98CE00E948E0312
S113047061E082E00E948E038FEC97E00197F1F730
S113048000C0000060E082E00E948E038FEC97E0E1
S11304900197F1F700C00000CF9108958FE295E72E
S11304A00197F1F700C0000082E00E948E018FE9FD
S11304B09FE00197F1F700C0000088E20E948E01DE
S11304C08FE99FE00197F1F700C000008CE00E94E3
S11304D08E0186E00E948E0181E00E948E018FE9E8
S11304E09FE00197F1F700C0000008950C94EE011D
S11304F00F931F93CF938C01C0E0F801EC0FF11D13
S11305008081882321F00E94EE01CF5FF6CF8FE136
S11305109EE40197F1F700C00000CF911F910F9165
S11305200895813039F058F0823031F0833031F45D
S11305306C5A05C0605C03C06C5E01C060E0862F2D
S113054080680C948E0181E00C948E010E94490015
S11305500E948400FDCFE5EDF0E040E081E090E012
S11305603191242F2770542F569556955695523015
S113057009F46BC0533009F49BC0513099F1313008
S113058009F190F0323009F0C4C05AB3BC0102C082
S1130590660F771F2A95E2F79B01362F3095352396
S11305A03ABB3BB3232B1CC05AB3BC0102C0660F39
S11305B0771F2A95E2F79B01352F322B3ABB3BB3C9
S11305C020950DC05AB3BC0102C0660F771F2A954F
S11305D0E2F79B012095352F32233ABB3BB323230B
S11305E02BBB97C0313009F190F0323009F091C043
S11305F057B3BC0102C0660F771F2A95E2F79B012F
S1130600362F3095352337BB38B3232B1CC057B353
S1130610BC0102C0660F771F2A95E2F79B01352FB4
S1130620322B37BB38B320950DC057B3BC0102C081
S1130630660F771F2A95E2F79B012095352F322309
S113064037BB38B3232328BB64C0313009F190F0A1
S1130650323009F05EC054B3BC0102C0660F771F8C
S11306602A95E2F79B01362F3095352334BB35B3F9
S1130670232B1CC054B3BC0102C0660F771F2A95FC
S1130680E2F79B01352F322B34BB35B320950DC0D7
S113069054B3BC0102C0660F771F2A95E2F79B0191
S11306A02095352F322334BB35B3232325BB31C0EA
S11306B0313001F188F0323061F551B3BC0102C030
S11306C0660F771F2A95E2F79B01362F3095352365
S11306D031BB32B3232B1CC051B3BC0102C0660F23
S11306E0771F2A95E2F79B01352F322B31BB32B3AA
S11306F020950DC051B3BC0102C0660F771F2A9527
S1130700E2F79B012095352F322331BB32B32323EB
S113071022BB4F5F403209F023CF0895982F96955E
S113072096959695943008F084C08770923009F4B9
S113073043C0933009F45EC09130F9F0662379F038
S1130740613009F076C04BB321E030E0B90102C05A
S1130750660F771F8A95E2F7CB01842B0CC04BB34D
S113076021E030E0B90102C0660F771F8A95E2F7F5
S1130770CB01809584238BBB4DC0662379F0613017
S113078009F057C048B321E030E0B90102C0660F58
S1130790771F8A95E2F7CB01842B0CC048B321E084
S11307A030E0B90102C0660F771F8A95E2F7CB01EA
S11307B08095842388BB2EC0662371F06130C9F50F
S11307C045B321E030E0B90102C0660F771F8A9576
S11307D0E2F7CB01842B0CC045B321E030E0B90132
S11307E002C0660F771F8A95E2F7CB0180958423B8
S11307F085BB10C0662381F06130D9F442B321E097
S113080030E0B90102C0660F771F8A95E2F7CB0189
S1130810842B82BB80E0089542B321E030E0B9012B
S113082002C0660F771F8A95E2F7CB018095842377
S1130830F0CF81E0089583E389B9599880B58F7E1C
S113084080BD80B58F7D80BD80B5877F80BD549A83
S1130850539A08955D9BFECF8CB908955F9BFECF9C
S11308608CB108951F920F920FB60F9211242F93FB
S11308703F934F935F936F937F938F939F93AF9324
S1130880BF93EF93FF93E091F900F091FA00309752
S113089009F00995FF91EF91BF91AF919F918F91CD
S11308A07F916F915F914F913F912F910F900FBE68
S11308B00F901F9018951F920F920FB60F9211244C
S11308C02F933F934F935F936F937F938F939F9354
S11308D0AF93BF93EF93FF93E091F700F091F8008B
S11308E0309709F00995FF91EF91BF91AF919F91D6
S11308F08F917F916F915F914F913F912F910F90C5
S11309000FBE0F901F90189597FB072E16F40094B6
S113091007D077FD09D00E94E40407FC05D03EF41B
S1130920909581959F4F0895709561957F4F089597
S1130930A1E21A2EAA1BBB1BFD010DC0AA1FBB1FDF
S1130940EE1FFF1FA217B307E407F50720F0A21B51
S1130950B30BE40BF50B661F771F881F991F1A94BE
S113096069F760957095809590959B01AC01BD01E8
S1130970CF010895052E97FB1EF400940E94D10424
S113098057FD07D00E94980407FC03D04EF40C9442
S1130990D10450954095309521953F4F4F4F5F4F6F
S11309A0089590958095709561957F4F8F4F9F4FD7
S11309B008950E94F804A59F900DB49F900DA49FE4
S11309C0800D911D11240895AA1BBB1B51E107C082
S11309D0AA1FBB1FA617B70710F0A61BB70B881FCB
S11309E0991F5A95A9F780959095BC01CD0108955A
S11309F0A29FB001B39FC001A39F700D811D11245C
S1130A00911DB29F700D811D1124911D08958F9227
S1130A109F92AF92BF92CF92DF92EF92FF92CF93C9
S1130A20DF93EC01688179818A819B81611571056D
S1130A308105910521F464E279ED8BE597E02DE1E0
S1130A4033EF41E050E00E94BA0449015A019B018E
S1130A50AC01A7EAB1E40E94D9046B017C01ACEEBD
S1130A60B4EFA50194010E946F05DC01CB018C0D4C
S1130A709D1DAE1DBF1DB7FF03C00197A109B0485E
S1130A8088839983AA83BB839F77DF91CF91FF905B
S1130A90EF90DF90CF90BF90AF909F908F9008958C
S1130AA00E940705089580E690E00E9407050895D6
S1130AB0A0E0B0E08093600090936100A093620096
S1130AC0B09363000895FB01DC018D9101908019BE
S1130AD00110D9F3990B0895B7FF0C94D9040E941F
S10F0AE0D904821B930B0895F894FFCFF7
S1130AEC01000000476574204B65793A20003331CE
S1130AFC303141413030004E52432037462033319F
S1130B0C203333004E5243374633313333003237BC
S1130B1C3031003637203031200036373031003256
S1130B2C373032003637203032200036373032003E
S1130B3C37462032372033350037463237333500C9
S1130B4C37312030312041412030300037313031C1
S1130B5C41413030000101000000000000000000A1
S1130B6C000001000100000000000001010100016F
S1090B7C02000202020067
S9030000FC
