S012000050574D5F4465746563742E7372656366
S11300000C942A000C94BC030C94E5030C940E0489
S11300100C94DD050C94B4050C948B050C943905F3
S11300200C9462050C9410050C94A0040C947704B1
S11300300C9447000C9447000C9447000C94470020
S11300400C9447000C9447000C9447000C94470010
S11300500C94470011241FBECFE5D8E0DEBFCDBF0E
S113006010E0A0E6B0E0E0E1FCE002C005900D92F3
S1130070AA3EB107D9F721E0AAEEB0E001C01D9273
S1130080A130B207E1F70E9424020C9406060C94F6
S113009000000E94290265E083E00E94370482E0A8
S11300A00E945C041CBE64E081E00E94C90480E0FC
S11300B00E9405050E94D2010C94A800CF93DF93FF
S11300C00E94B3008E3481F18B3281F4809100015F
S11300D0853051F18F5F809300010E94210260E01E
S11300E080E00E940F0280E690E011C08D32E1F4BE
S11300F0809100018823C1F08150809300010E9407
S1130100210260E080E00E940F028FE790E00E94ED
S1130110FC01809100010E94FA01809100019CEC95
S1130120899F802D11248CBFC7B586B5D0E0DC2F04
S1130130CC27C80FD11D60E082E00E940F028EE937
S113014090E00E94FC018C2FDF91CF910C94FA0176
S1130150CF93C5E161E08C2F0E940C03C150C131E3
S1130160C9F7CF9108959F92AF92BF92CF92DF9239
S1130170EF92FF920F931F93CF93DF931F92CDB70C
S1130180DEB78EE489839AEBC92E90E0D92E15E16F
S11301900EE460E0812F0E940C0386EBA82E80E021
S11301A0B82EE12CF12CF50191905F01BE016F5F37
S11301B07F4F892D0E9499038981811114C0F60112
S11301C0EE0DFF1D00818FE39CE90197F1F700C05C
S11301D000008981811107C0BE016F5F7F4F892DA7
S11301E00E949903F6CF9FEFE91AF90AE4E0EE16AC
S11301F0F104C9F661E0812F0E940C031150F4E070
S1130200CF0ED11C113129F6802F0F90DF91CF91A1
S11302101F910F91FF90EF90DF90CF90BF90AF9020
S11302209F900895CF93C82F60E083E00E940C0351
S1130230C4FB662760F988E00E940C03C5FB6627AF
S113024060F989E00E940C03C6FB662760F98AE026
S11302500E940C036C2F661F6627661F8CE00E94A9
S11302600C0361E082E00E940C038FE99FE0019798
S1130270F1F700C0000060E082E00E940C038FE907
S11302809FE00197F1F700C000006C2F617088E0D7
S11302900E940C03C1FB662760F989E00E940C03ED
S11302A0C2FB662760F98AE00E940C03C3FB662741
S11302B060F98CE00E940C0361E082E00E940C0370
S11302C08FE99FE00197F1F700C0000060E082E051
S11302D00E940C038FE99FE00197F1F700C0000032
S11302E0CF910895CF93C82F61E083E00E940C035F
S11302F0C4FB662760F988E00E940C03C5FB6627EF
S113030060F989E00E940C03C6FB662760F98AE065
S11303100E940C036C2F661F6627661F8CE00E94E8
S11303200C0361E082E00E940C038FE99FE00197D7
S1130330F1F700C0000060E082E00E940C038FE946
S11303409FE00197F1F700C000006C2F617088E016
S11303500E940C03C1FB662760F989E00E940C032C
S1130360C2FB662760F98AE00E940C03C3FB662780
S113037060F98CE00E940C0361E082E00E940C03AF
S11303808FE99FE00197F1F700C0000060E082E090
S11303900E940C038FE99FE00197F1F700C0000071
S11303A0CF9108958FE59AEE0197F1F700C0000010
S11303B082E00E9412018FE39FE10197F1F700C0F0
S11303C0000088E20E9412018FE39FE10197F1F798
S11303D000C000008CE00E94120186E00E9412011D
S11303E081E00E9412018FE39FE10197F1F700C0C1
S11303F0000008950C9472010F931F93CF938C0106
S1130400C0E0F801EC0FF11D8081882321F00E94E7
S11304107201CF5FF6CFCF911F910F910895813074
S113042039F058F0823031F0833031F46C5A05C021
S1130430605C03C06C5E01C060E0862F80680C9431
S1130440120181E00C9412010E9449000E945E0096
S1130450FDCFEAECF0E040E081E090E03191242F20
S11304602770542F569556955695523009F46BC003
S1130470533009F49BC0513099F1313009F190F0B7
S1130480323009F0C4C05AB3BC0102C0660F771FF2
S11304902A95E2F79B01362F309535233ABB3BB3BF
S11304A0232B1CC05AB3BC0102C0660F771F2A95C8
S11304B0E2F79B01352F322B3ABB3BB320950DC09D
S11304C05AB3BC0102C0660F771F2A95E2F79B015D
S11304D02095352F32233ABB3BB323232BBB97C044
S11304E0313009F190F0323009F091C057B3BC01BA
S11304F002C0660F771F2A95E2F79B01362F3095CD
S1130500352337BB38B3232B1CC057B3BC0102C0FF
S1130510660F771F2A95E2F79B01352F322B37BBE5
S113052038B320950DC057B3BC0102C0660F771FC6
S11305302A95E2F79B012095352F322337BB38B338
S1130540232328BB64C0313009F190F0323009F024
S11305505EC054B3BC0102C0660F771F2A95E2F750
S11305609B01362F3095352334BB35B3232B1CC068
S113057054B3BC0102C0660F771F2A95E2F79B01B2
S1130580352F322B34BB35B320950DC054B3BC0189
S113059002C0660F771F2A95E2F79B012095352F3D
S11305A0322334BB35B3232325BB31C0313001F1B1
S11305B088F0323061F551B3BC0102C0660F771F79
S11305C02A95E2F79B01362F3095352331BB32B3A0
S11305D0232B1CC051B3BC0102C0660F771F2A95A0
S11305E0E2F79B01352F322B31BB32B320950DC07E
S11305F051B3BC0102C0660F771F2A95E2F79B0135
S11306002095352F322331BB32B3232322BB4F5FD6
S1130610403209F023CF0895982F96959695969594
S1130620943008F084C08770923009F443C093304A
S113063009F45EC09130F9F0662379F0613009F075
S113064076C04BB321E030E0B90102C0660F771FDA
S11306508A95E2F7CB01842B0CC04BB321E030E048
S1130660B90102C0660F771F8A95E2F7CB01809526
S113067084238BBB4DC0662379F0613009F057C0E9
S113068048B321E030E0B90102C0660F771F8A95B4
S1130690E2F7CB01842B0CC048B321E030E0B90170
S11306A002C0660F771F8A95E2F7CB0180958423F9
S11306B088BB2EC0662371F06130C9F545B321E0D3
S11306C030E0B90102C0660F771F8A95E2F7CB01CB
S11306D0842B0CC045B321E030E0B90102C0660FA1
S11306E0771F8A95E2F7CB018095842385BB10C0E0
S11306F0662381F06130D9F442B321E030E0B901DE
S113070002C0660F771F8A95E2F7CB01842B82BB68
S113071080E0089542B321E030E0B90102C0660FE1
S1130720771F8A95E2F7CB0180958423F0CF81E08F
S11307300895FB01982F9695969596959430D0F44C
S1130740282F2770923041F0933089F0913011F0C6
S113075089B303C086B301C083B390E002C095950A
S113076087952A95E2F78170808380E0089590B39D
S1130770892FF3CF81E008951F920F920FB60F9245
S113078011242F933F934F935F936F937F938F9392
S11307909F93AF93BF93EF93FF93E091EE00F0919B
S11307A0EF00309709F00995FF91EF91BF91AF9158
S11307B09F918F917F916F915F914F913F912F9175
S11307C00F900FBE0F901F9018951F920F920FB6A7
S11307D00F9211242F933F934F935F936F937F93C3
S11307E08F939F93AF93BF93EF93FF93E091EC00AC
S11307F0F091ED00309709F00995FF91EF91BF91C9
S1130800AF919F918F917F916F915F914F913F91A4
S11308102F910F900FBE0F901F9018951F920F925B
S11308200FB60F9211242F933F934F935F936F93BF
S11308307F938F939F93AF93BF93EF93FF93E09135
S1130840EA00F091EB00309709F00995FF91EF91E0
S1130850BF91AF919F918F917F916F915F914F91D4
S11308603F912F910F900FBE0F901F9018958130DC
S113087071F038F0823041F0833099F483B78064AA
S11308800CC083B78F7B05C083B78F7B06C083B74B
S1130890806483BF83B7877F03C083BF83B78860C7
S11308A083BF83B7887F83BF83B76770682B63BFB9
S11308B088B78E7F88BF0895813049F028F0823050
S11308C061F0833069F0089583B78F7E02C083B7E7
S11308D0806183BF83B78F7D08C083B78F7E02C0DA
S11308E083B7806183BF83B7806283BF08951F92FB
S11308F00F920FB60F9211242F933F934F935F9350
S11309006F937F938F939F93AF93BF93EF93FF93D3
S1130910E091FE00F091FF00309709F00995FF91F6
S1130920EF91BF91AF919F918F917F916F915F9163
S11309304F913F912F910F900FBE0F901F901895DC
S11309401F920F920FB60F9211242F933F934F9340
S11309505F936F937F938F939F93AF93BF93EF9323
S1130960FF93E091FC00F091FD00309709F00995A8
S1130970FF91EF91BF91AF919F918F917F916F9173
S11309805F914F913F912F910F900FBE0F901F9049
S113099018958230D9F050F4882379F0813071F5BC
S11309A08FB58E7F8FBD8FB58D7F21C08330D1F001
S11309B0843021F58FB5816017C08FB58E7F8FBDD0
S11309C08FB58D7F8FBD8EB5877F08C08FB58E7F25
S11309D08FBD8FB58D7F8FBD8EB588608EBD8EB572
S11309E08F7E0BC08FB58E7F8FBD8FB582608FBD1C
S11309F08EB588608EBD8EB580618EBD8EB5887FC4
S1130A008EBD8EB5682B6EBD0895811103C08EB561
S1130A10806404C0813019F48EB58F7B8EBD089537
S1130A201F920F920FB60F9211242F933F934F935F
S1130A305F936F937F938F939F93AF93BF93EF9342
S1130A40FF93E091FA00F091FB00309709F00995CB
S1130A50FF91EF91BF91AF919F918F917F916F9192
S1130A605F914F913F912F910F900FBE0F901F9068
S1130A7018951F920F920FB60F9211242F933F9344
S1130A804F935F936F937F938F939F93AF93BF9392
S1130A90EF93FF93E091F800F091F900309709F09B
S1130AA00995FF91EF91BF91AF919F918F917F91A4
S1130AB06F915F914F913F912F910F900FBE0F90C7
S1130AC01F9018951F920F920FB60F9211242F9317
S1130AD03F934F935F936F937F938F939F93AF93C2
S1130AE0BF93EF93FF93E091F600F091F7003097F6
S1130AF009F00995FF91EF91BF91AF919F918F916B
S1130B007F916F915F914F913F912F910F900FBE05
S1130B100F901F9018951F920F920FB60F921124E9
S1130B202F933F934F935F936F937F938F939F93F1
S1130B30AF93BF93EF93FF93E091F400F091F5002E
S1130B40309709F00995FF91EF91BF91AF919F9173
S1130B508F917F916F915F914F913F912F910F9062
S1130B600FBE0F901F9018951F920F920FB60F9201
S1130B7011242F933F934F935F936F937F938F939E
S1130B809F93AF93BF93EF93FF93E091F200F091A3
S1130B90F300309709F00995FF91EF91BF91AF9160
S1130BA09F918F917F916F915F914F913F912F9181
S1130BB00F900FBE0F901F9018951F920F920FB6B3
S1130BC00F9211242F933F934F935F936F937F93CF
S1130BD08F939F93AF93BF93EF93FF93E091F000B4
S1130BE0F091F100309709F00995FF91EF91BF91D1
S1130BF0AF919F918F917F916F915F914F913F91B1
S1130C002F910F900FBE0F901F901895F894FFCF5F
S1130C1075706461746520746865207370656564BB
S1130C20202620696E6372656D656E74203A0075C6
S1130C3070646174652074686520737065656420F0
S1130C40262064656372656D656E74203A00757064
S1130C50646174652074686520494355204E756D40
S1130C60626572203A001F1E1D1B3738392F343538
S1130C70362A3132332D63303D2B01010000000050
S1130C80000000000000000100010000000000005E
S10D0C90010101000102000202024A
S9030000FC
