S01100005363686564756C65722E7372656374
S11300000C942A000C943C000C943C000C943C008E
S11300100C9445010C943C000C943C000C943C0062
S11300200C943C000C943C000C943C000C943C005C
S11300300C943C000C943C000C943C000C943C004C
S11300400C943C000C943C000C943C000C943C003C
S11300500C943C0011241FBECFE5D8E0DEBFCDBF19
S113006020E0A0E6B0E001C01D92AD37B207E1F791
S11300700E9457000C9482010C94000067E081E018
S11300800C94860064E080E00E94860080E00C947A
S1130090120165E080E00E94860082E00C94070172
S11300A066E080E00E94860080E00C941D010E94BE
S11300B078004EE350E064EF71E080E00E94EE00CF
S11300C042E450E068EE73E081E00E94EE0049E40F
S11300D050E060ED77E082E00E94EE0040E550E001
S11300E068EB7BE083E00E94EE000E94E100FFCF1A
S11300F08CEF8ABB8FEF87BB14BA11BA84E88BBB31
S113010088E688BB15BA88E082BB0895813081F007
S113011028F08230B9F08330F9F008952BB381E0F0
S113012090E001C0880F6A95EAF782278BBB089597
S113013028B381E090E001C0880F6A95EAF782272E
S113014088BB089525B381E090E001C0880F6A95CB
S1130150EAF7822785BB089522B381E090E001C0CD
S1130160880F6A95EAF7822782BB08958FB7806863
S11301708FBF0895CF93DF938091600090916100C9
S113018001969093610080936000C2E6D0E0809174
S11301906000909161006A817B810E946E01892BCD
S11301A041F4E881F981309721F08C81823009F49F
S11301B00995259680E0CB37D80749F7DF91CF9191
S11301C008950E94B6000E94280189EF0E943C0114
S11301D08AEB90E00E943E010C9432018530A8F431
S11301E04115510591F095E0899FF0011124EE59D4
S11301F0FF4F80819181892B41F473836283518302
S1130200408382E0848381E0089580E0089585300E
S113021040F495E0899FF0011124EE59FF4F1182BB
S113022010820895853040F495E0899FF0011124EF
S1130230EE59FF4F81E084830895853040F495E0C2
S1130240899FF0011124EE59FF4F82E084830895C1
S113025085B58F7B85BD85B5886085BD89B7806888
S113026089BF089585B58E7F85BD85B58D7F85BD94
S113027085B5846085BD089583BD0895009721F0F8
S113028090937C0080937B0008951F920F920FB689
S11302900F9211242F933F934F935F936F937F9308
S11302A08F939F93AF93BF93EF93FF93E0917B0062
S11302B0F0917C00309709F00995FF91EF91BF917F
S11302C0AF919F918F917F916F915F914F913F91EA
S11302D02F910F900FBE0F901F901895AA1BBB1B58
S11302E051E107C0AA1FBB1FA617B70710F0A61B32
S11302F0B70B881F991F5A95A9F780959095BC0153
S10B0300CD010895F894FFCF2C
S9030000FC
